{
  "contractName": "CalculateKittyTransferEmissions",
  "abi": [
    {
      "constant": true,
      "inputs": [],
      "name": "kittyInTransit",
      "outputs": [
        {
          "name": "",
          "type": "uint256"
        }
      ],
      "payable": false,
      "stateMutability": "view",
      "type": "function"
    },
    {
      "constant": true,
      "inputs": [],
      "name": "emissionsCalculationComplete",
      "outputs": [
        {
          "name": "",
          "type": "bool"
        }
      ],
      "payable": false,
      "stateMutability": "view",
      "type": "function"
    },
    {
      "constant": true,
      "inputs": [],
      "name": "prevOwnerDistance",
      "outputs": [
        {
          "name": "",
          "type": "uint256"
        }
      ],
      "payable": false,
      "stateMutability": "view",
      "type": "function"
    },
    {
      "constant": true,
      "inputs": [],
      "name": "totalEmissionsinMetricTons",
      "outputs": [
        {
          "name": "",
          "type": "uint256"
        }
      ],
      "payable": false,
      "stateMutability": "view",
      "type": "function"
    },
    {
      "constant": true,
      "inputs": [],
      "name": "newOwnerDistance",
      "outputs": [
        {
          "name": "",
          "type": "uint256"
        }
      ],
      "payable": false,
      "stateMutability": "view",
      "type": "function"
    },
    {
      "constant": true,
      "inputs": [],
      "name": "newOwner",
      "outputs": [
        {
          "name": "",
          "type": "address"
        }
      ],
      "payable": false,
      "stateMutability": "view",
      "type": "function"
    },
    {
      "constant": true,
      "inputs": [],
      "name": "prevOwner",
      "outputs": [
        {
          "name": "",
          "type": "address"
        }
      ],
      "payable": false,
      "stateMutability": "view",
      "type": "function"
    },
    {
      "inputs": [
        {
          "name": "_prevOwner",
          "type": "address"
        },
        {
          "name": "prevOwner_digits",
          "type": "uint256"
        },
        {
          "name": "_newOwner",
          "type": "address"
        },
        {
          "name": "newOwner_digits",
          "type": "uint256"
        },
        {
          "name": "_kittyId",
          "type": "uint256"
        }
      ],
      "payable": false,
      "stateMutability": "nonpayable",
      "type": "constructor"
    },
    {
      "anonymous": false,
      "inputs": [
        {
          "indexed": false,
          "name": "emissionsCalculationComplete",
          "type": "bool"
        },
        {
          "indexed": false,
          "name": "totalEmissionsinMetricTons",
          "type": "uint256"
        },
        {
          "indexed": false,
          "name": "prevOwner",
          "type": "address"
        },
        {
          "indexed": false,
          "name": "receiver",
          "type": "address"
        },
        {
          "indexed": false,
          "name": "kittyInTransit",
          "type": "uint256"
        }
      ],
      "name": "TotalTransferEmissionsCalculated",
      "type": "event"
    },
    {
      "constant": true,
      "inputs": [],
      "name": "getTotalEmissions",
      "outputs": [
        {
          "name": "",
          "type": "uint256"
        }
      ],
      "payable": false,
      "stateMutability": "view",
      "type": "function"
    }
  ],
  "bytecode": "0x608060405234801561001057600080fd5b5060405160a080610406833981018060405260a081101561003057600080fd5b810190808051906020019092919080519060200190929190805190602001909291908051906020019092919080519060200190929190505050846000806101000a81548173ffffffffffffffffffffffffffffffffffffffff021916908373ffffffffffffffffffffffffffffffffffffffff16021790555082600160006101000a81548173ffffffffffffffffffffffffffffffffffffffff021916908373ffffffffffffffffffffffffffffffffffffffff16021790555081600381905550836004819055508060068190555050505050506102f3806101136000396000f3fe60806040526004361061008e576000357c0100000000000000000000000000000000000000000000000000000000900463ffffffff16806309fd103214610093578063112136ba146100be5780631e3c8c72146100e95780632f00a1f6146101185780634231926014610143578063b951d3dc1461016e578063d4ee1d9014610199578063dffe7bbc146101f0575b600080fd5b34801561009f57600080fd5b506100a8610247565b6040518082815260200191505060405180910390f35b3480156100ca57600080fd5b506100d3610251565b6040518082815260200191505060405180910390f35b3480156100f557600080fd5b506100fe610257565b604051808215151515815260200191505060405180910390f35b34801561012457600080fd5b5061012d61026a565b6040518082815260200191505060405180910390f35b34801561014f57600080fd5b50610158610270565b6040518082815260200191505060405180910390f35b34801561017a57600080fd5b50610183610276565b6040518082815260200191505060405180910390f35b3480156101a557600080fd5b506101ae61027c565b604051808273ffffffffffffffffffffffffffffffffffffffff1673ffffffffffffffffffffffffffffffffffffffff16815260200191505060405180910390f35b3480156101fc57600080fd5b506102056102a2565b604051808273ffffffffffffffffffffffffffffffffffffffff1673ffffffffffffffffffffffffffffffffffffffff16815260200191505060405180910390f35b6000600254905090565b60065481565b600560009054906101000a900460ff1681565b60045481565b60025481565b60035481565b600160009054906101000a900473ffffffffffffffffffffffffffffffffffffffff1681565b6000809054906101000a900473ffffffffffffffffffffffffffffffffffffffff168156fea165627a7a72305820af2644de7f6f5bc4de2cb64085bc9e38a092f09665699041cf78518c0c72617b0029",
  "source": "pragma solidity >= 0.4 .22 < 0.6 .0;\n\ncontract CalculateKittyTransferEmissions {\n  address public prevOwner;\n  address public newOwner;\n  uint public totalEmissionsinMetricTons;\n  uint public newOwnerDistance;\n  uint public prevOwnerDistance;\n  bool public emissionsCalculationComplete;\n  uint public kittyInTransit;\n  \n  event TotalTransferEmissionsCalculated(bool emissionsCalculationComplete, uint totalEmissionsinMetricTons, address prevOwner, address receiver, uint kittyInTransit);\n  \n  constructor(address _prevOwner, uint prevOwner_digits, address _newOwner, uint newOwner_digits, uint256 _kittyId) public {\n    prevOwner = _prevOwner;\n    newOwner = _newOwner;\n    newOwnerDistance = newOwner_digits;\n    prevOwnerDistance = prevOwner_digits;\n    kittyInTransit = _kittyId;\n  }\n\n  /* Method to convert distance from meters to kilometers: */\n  function convertMetersToKilometers (uint distanceInMeters) internal pure returns(uint) {\n    return distanceInMeters / 1000;\n  }\n\n  /* Method to convert grams to metric tons:*/\n  function convertGramsToMetricTons (uint emissionInGrams) internal pure returns(uint) {\n    return emissionInGrams / 1000000;\n  }\n\n  /* Method to calculate emissions in grams based on distance traveled in kilometers */\n  function getEmissionsInGrams (uint distanceInKlmts) internal pure returns(uint) {\n    return distanceInKlmts * 100;\n  }\n\n  /* Method to calculate grams emitted based on kilometers traveled: */\n  function calculateEmissions (uint newOwnerDistance, uint prevOwnerDistance) internal {\n    /* Check that only the sender can initiate this call */\n    require (msg.sender == prevOwner, \"Only the previous owner can initiate a transfer calculation\");\n    \n    /* Check that the new owner is different than the previus owner */\n    require (prevOwner != newOwner, \"Error - transfer cannot occur between the same addresses\");\n   \n    //Get distance in meters based on address of new and previous owner\n    uint distanceInMeters = newOwnerDistance - prevOwnerDistance;\n\n    //Convert distance in meters to distance in kilometers\n    uint distanceInKilometers = convertMetersToKilometers(distanceInMeters);\n\n    //Get Co2 emission in grams based on distance traveled in kilometers\n    uint emissionsInGrams = getEmissionsInGrams(distanceInKilometers);\n\n    //Convert emission in grams to emisions in metric tons\n    totalEmissionsinMetricTons = convertGramsToMetricTons(emissionsInGrams);\n\n    //Complete the emissions calculation and emit event \n    emissionsCalculationComplete = true;\n    emit TotalTransferEmissionsCalculated(emissionsCalculationComplete, totalEmissionsinMetricTons, prevOwner, newOwner, kittyInTransit);\n  }\n\n  function getTotalEmissions () public view returns(uint) {\n    return totalEmissionsinMetricTons;\n  }\n}\n\n",
  "sourcePath": "/Users/wpurdum/Documents/Ethereum/CryptoKitties/contracts/CalculateEmissions.sol",
  "compiler": {
    "name": "solc",
    "version": "0.5.0+commit.1d4f565a.Emscripten.clang"
  },
  "schemaVersion": "3.0.6",
  "updatedAt": "2019-04-17T21:58:29.661Z",
  "devdoc": {
    "methods": {}
  },
  "userdoc": {
    "methods": {}
  }
}